S018000054565F425F474F4E455F31315F4156522E7372656330
S113000029CF3BCF3ACF39CF38CF37CF36CF35CFC3
S113001034CF33CF32CF31CF30CF2FCF2ECFEB1DD4
S11300201A1D891B881AEF198E197D18F417E31607
S11300304A167915E0140F144E13B5121C129311BD
S1130040FA10690FD80D3F0DA60C0D0C5C0BF30ACA
S1130050220A9909C8083708DE074507E4064B0653
S1130060BA04210488032F030203D5023C022B02A5
S11300700A02A1010801A7007A00591A016C031AA7
S113008001F6071A01F6071A016C031A016C031A28
S113009001F6071A016C031A01F6071A01F6071A8A
S11300A0016C031A010000662E007B002E007B0009
S11300B02E007B002E007B002E007B0088002D008C
S11300C02E007B002E007B002E007B002E007B0088
S11300D02E007B002E00FF0D2E007B002E007B00E7
S11300E02E007B002E007B002E007B0088002D005C
S11300F02E007B002E007B002E007B002E007B0058
S11301002E007B002E000000669C03AF013800AD7A
S1130110003800AD00380042003800420038004288
S11301200038004200380042003800AD0038004278
S1130130003800AD00380042003800AD003800AD92
S1130140003800AD003800AD0038004200380042ED
S11301500038004200380042003800AD0038004248
S1130160003800420038004200380042003800AD38
S1130170003800AD003800AD00380042003800AD52
S1130180003800AD003800AD003800AD0038007014
S1130190109C03E7003800C3229C03E700380000EA
S11301A00034FA003F0079003F003C003F00790032
S11301B03F003C003F0079003F003C003F003C0012
S11301C03F0079003F003C003F003C003F003C0002
S11301D03F003C00030BFA003F0079003F003C0065
S11301E03F0079003F003C003F0079003F003C00A5
S11301F03F003C003F0079003F003C003F003C00D2
S11302003F003C003F003C0000006676006700763B
S11302100067007600CD007600DA0A760067007683
S11302200067007600CD0076000000497600670084
S1130230C402DA0A76006700C4020000669C03CB9D
S1130240013B00B2003B0039003B00B2003B0039E7
S1130250003B00B2003B0039003B0039003B003951
S1130260003B0039003B00B2003B0039003B00B2C8
S1130270003B0039003B00B2003B00B2003B00B23F
S1130280003B0039003B00B2003B0039003B003921
S1130290003B00B2003B0039003B0039003B003911
S11302A0003B00B2003B0039003B00B2003B00B20F
S11302B0003B0039003B00B2003B00B2003B00B2FF
S11302C0003B00A6109C03E7003B001E269C03E7AE
S11302D0003B000000621202A7002A000D012A0060
S11302E00D012A000D01AA00A6002A000D01AA0092
S11302F0A600AA00A6002A000D012A000D012A006A
S113030000006E580053025800FF005800FF0058C8
S113031000FF00580052025800FF005800520258D3
S1130320005202580052025800FF005800000062B8
S113033065005E0065005E0065005E0065002501E5
S113034065005E006500250165005E00650025010D
S113035065005E0065005E006500C20D65005E001C
S113036065005E0065005E006500250165005E00B5
S11303706500250165005E006500250165005E00DD
S113038065005E00650000006A9C03D0013A0039F4
S1130390003A0039003A0039003A00AD003A00ADA5
S11303A0003A0039003A0039003A0039003A00AD09
S11303B0003A00AD003A00AD003A0039003A003985
S11303C0003A00AD003A00AD003A00AD003A003901
S11303D0003A0039003A0039003A00AD003A0039D9
S11303E0003A0039003A0039003A0039003A00ADC9
S11303F0003A00AD003A00AD003A0039003A00ADD1
S1130400003A00AD003A00AD003A00AD003A00D623
S11304100F9E03E6003A0098269E03E6003A000089
S1130420006A9C03D0013A0039003A0039003A00CE
S113043039003A0039003A00AD003A0039003A0078
S1130440AD003A0039003A00AD003A00AD003A0080
S1130450AD003A00AD003A0039003A00AD003A0070
S113046039003A00AD003A00AD003A00AD003A0060
S1130470AD003A00AD003A00AD003A00AD003A00DC
S113048039003A0039003A0039003A0039003A009C
S113049039003A0039003A0039003A0039003A008C
S11304A0AD003A00AD003A00D60F9D03E6003A00D5
S11304B098269D03E6003A0000006A58019F002B2D
S11304C0002B002B002B002B007C002B002B002B7F
S11304D0007C002B002B002B002B002B002B002B6F
S11304E0007C002B007C002B002B002B002B002B0E
S11304F0002B002B007C002B007C002B002B002BFE
S1130500002B002B002B002B002B002B002B002B8F
S1130510002B002B002B002B002B002B002B002B7F
S1130520002B002B002B002B007C002B002B002B1E
S1130530002B002B002B002B002B002B007C002B0E
S1130540002B002B007C002B002B002B007C002BAD
S1130550002B002B002B002B002B002B007C002BEE
S1130560002B002B002B002B002B002B002B002B2F
S1130570002B002B002B002B002B002B002B002B1F
S1130580003E155B019D002B002B002B002B002B44
S1130590007C002B002B002B007C002B002B002B5D
S11305A0002B002B002B002B007C002B007C002B4D
S11305B0002B002B002B002B002B002B007C002B8E
S11305C0007C002B002B002B002B002B002B002B7E
S11305D0002B002B002B002B002B002B002B002BBF
S11305E0002B002B002B002B002B002B002B002BAF
S11305F0007C002B002B002B002B002B002B002B4E
S1130600002B002B007C002B002B002B007C002BEC
S1130610002B002B007C002B002B002B002B002B2D
S1130620002B002B007C002B002B002B002B002B1D
S1130630002B002B002B002B002B002B002B002B5E
S1130640002B002B002B002B0000006A9C03CD0123
S113065038003800380038003800380038003800D6
S11306603800AE00380038003800AE0038003800DA
S11306703800AE00380038003800AE003800AE0054
S1130680380038003800AE00380038003800AE00BA
S1130690380038003800AE00380038003800380020
S11306A03800380038003800380038003800380086
S11306B03800AE00380038003800AE003800AE0014
S11306C03800AE003800AE003800AE003800AE008E
S11306D03800D70F9E03E60038007F269E03E6000D
S11306E038000000725C005B005C005B00B8005BDB
S11306F0005C005B005C005B005C005B005C005B1A
S1130700005C005B005C00B6005C005B00B8005B52
S1130710005C0001245C005B005C005B00B8005BD3
S1130720005C005B005C005B005C005B005C005BE9
S1130730005C005B005C00B6005C005B00B8005B22
S1130740005C0000006A9C03CD01380038003800CA
S1130750380038003800380038003800AE0038005F
S113076038003800AE00380038003800AE003800D9
S113077038003800AE003800AE00380038003800C9
S1130780AE00380038003800AE00380038003800B9
S11307903800380038003800380038003800380095
S11307A0380038003800380038003800AE0038000F
S11307B0AE003800AE003800AE003800AE0038009D
S11307C0AE003800AE003800AE003800D70F9E03EC
S11307D0E60038007F269E03E60038000000725CC5
S11307E0005C00B8005C005C005C005C005C005CC9
S11307F0005C005C005C005C00B800B8005C005C5D
S113080000B8005C005C00B80000245C005C00B828
S1130810005C005C005C005C005C005C005C005CF4
S1130820005C005C00B800B8005C005C00B8005CD0
S1130830005C00B80000006A0B0114017B007B001F
S11308407B0015017B007B007B0015017B007B0096
S11308507B0015017B0015017B007B007B001501EB
S11308607B0015017B007B007B007B007B007B0011
S11308707B0015017B007B007B0015017B000C13C2
S11308800B0115017B007B007B0015017B007B00C5
S11308907B0015017B007B007B0015017B001501AB
S11308A07B007B007B0015017B0015017B007B0036
S11308B07B007B007B007B007B0015017B007B00C1
S11308C07B0015017B000000479B019A0134006600
S11308D0003400CD003400CD003400CD0034006677
S11308E000340066003400CD00340066003400CDCE
S11308F000340066003400CD00340066003400CDBE
S1130900003400660034006600340066003400CD14
S1130910003400CD00340066003400CD003400669D
S1130920003400CD00340066003400CD00340035BE
S1130930039B019A01340066003400CD003400CDDD
S1130940003400CD0034006600340066003400CD6D
S113095000340066003400CD00340066003400CD5D
S113096000340066003400CD0034006600340066B4
S113097000340066003400CD003400CD003400663D
S1130980003400CD00340066003400CD003400662D
S1130990003400CD0033000000683400310034001E
S11309A0A30134000A02340031003400A3013400EE
S11309B031003400A30134000A0234000A02340076
S11309C031003400A30134000A0234003100340041
S11309D0A30134000A023400310034007A323400B6
S11309E031003400A30134000A0234003100340021
S11309F0A301340031003400A30134000A0234009E
S1130A000A02340031003400A30134000A02340025
S1130A1031003400A30134000A02340031003400F0
S1130A2000006A6501660158000E0158000E015865
S1130A30000E0158000E0158000E0158000E015816
S1130A40000E0158005B0058005B0058005B005822
S1130A50005B0058005B0058005B0058005B0058C6
S1130A60005B0058005B0058005B0058005B0058B6
S1130A70005B0058000E0158000E0158000E01588A
S1130A80000E0158000E015800EA0D660166015877
S1130A90000E0158000E0158000E0158000E0158B6
S1130AA0000E0158000E0158000E0158005B00585A
S1130AB0005B0058005B0058005B0058005B005866
S1130AC0005B0058005B0058005B0058005B005856
S1130AD0005B0058005B0058005B0058000E015892
S1130AE0000E0158000E0158000E0158000E015866
S1130AF00000006AF5003C007B003C007B003C00E9
S1130B007B003C007B003C003D003C007B003C0043
S1130B103D003C007B003C003D003C003D003C00AF
S1130B203D003C003D004C0AF6003C007B003C00CC
S1130B307B003C007B003C007B003C003D003C0013
S1130B407B003C003D003C007B003C003D003C0041
S1130B503D003C003D003C003D00000066330004C5
S1130B600233000402330034003300A201330034A2
S1130B70003300A20133000402330034003300A226
S1130B800133000402330034003300A201330004B3
S1130B900233000402330034003300A20133003472
S1130BA0003300A20133000402330034003300A2F6
S1130BB0013300FA29330004023300040233003401
S1130BC0003300A201330034003300A201330004D7
S1130BD002330034003300A2013300040233003432
S1130BE0003300A201330004023300040233003452
S1130BF0003300A201330034003300A201330004A7
S1130C0002330034003300A201330000006A96036B
S1130C10CC0138003D0038003D0038003D0038006C
S1130C20B3003800B30038003D0038003D00380000
S1130C303D0038003D0038003D0038003D003800DC
S1130C40B3003800B30038003D0038003D003800E0
S1130C503D0038003D0038003D0038003D003800BC
S1130C603D0038003D0038003D003800B300380036
S1130C70B3003800B3003800B3003800B3003800C4
S1130C80B3003800B3003800B30038003D0038002A
S1130C903D003800E5119903E6003800E925990381
S1130CA0E600380000006A3503990133003400334C
S1130CB00034003300A300330034003300A30033B6
S1130CC0003400330034003300340033009901331E
S1130CD000A300330034003300A300330034003396
S1130CE000A30033003400330034003300340033F5
S1130CF0005D0936039901330034003300340033B6
S1130D0000A300330034003300A300330034003365
S1130D1000340033003400330099013300A300335E
S1130D200034003300A300330034003300A3003345
S1130D300034003300340033003400330000006A10
S1130D409C03D8013F0037003F0037003F00A60056
S1130D503F0037003F0037003F0037003F003700B7
S1130D603F0037003F00A6003F00A6003F003700C9
S1130D703F00A6003F00A6003F00A6003F00A600DB
S1130D803F00A6003F0037003F0037003F00370018
S1130D903F00A6003F0037003F0037003F00370008
S1130DA03F0037003F00A6003F00A6003F00A6001A
S1130DB03F0037003F00A6003F00A6003F00A6000A
S1130DC03F00A6003F006F109E03EA003F00E526A7
S1130DD09E03EA003E0000006A4F01A6002B002A91
S1130DE0002B002A002B007E002B002A002B007E03
S1130DF0002B002A002B002A002B002A002B007E47
S1130E00002B007E002B002A002B002A002B002A36
S1130E10002B007E002B007E002B002A002B002AD2
S1130E20002B002A002B002A002B002A002B002A6A
S1130E30002B002A002B002A002B002A002B002A5A
S1130E40002B002A002B007E002B002A002B002AF6
S1130E50002B002A002B002A002B007E002B002AE6
S1130E60002B002A002B007E002B002A002B002AD6
S1130E70002B002A002B002A002B007E002B002AC6
S1130E80002B007E002B002A002B002A002B002AB6
S1130E90002B002A002B002A002B002A002B0073B1
S1130EA0125001A6002B002A002B002A002B007EE2
S1130EB0002B002A002B007E002B002A002B002A86
S1130EC0002B002A002B007E002B007E002B002A22
S1130ED0002B002A002B002A002B007E002B007E12
S1130EE0002B002A002B002A002B002A002B002AAA
S1130EF0002B002A002B002A002B002A002B002A9A
S1130F00002B002A002B002A002B002A002B007E35
S1130F10002B002A002B002A002B002A002B002A79
S1130F20002B007E002B002A002B002A002B007EC1
S1130F30002B002A002B002A002B002A002B002A59
S1130F40002B007E002B002A002B007E002B002AA1
S1130F50002B002A002B002A002B002A002B002A39
S1130F60002B002A002B0000006A6903B70135003A
S1130F7037003500A400350037003500A4003500E3
S1130F8037003500A400350037003500A4003500D3
S1130F90A400350037003500A400350037003500C3
S1130FA0A400350037003500A400350037003500B3
S1130FB03700350037003500A4003500A4003500A3
S1130FC0A400350037003500370035003700350000
S1130FD0A4003500A4003500370035003700350083
S1130FE037003500A4003500A4003500A400350006
S1130FF0490A6903B801350037003500A4003500FB
S113100037003500A400350037003500A400350052
S113101037003500A4003500A40035003700350042
S1131020A400350037003500A40035003700350032
S1131030A40035003700350037003500370035008F
S1131040A4003500A4003500A400350037003500A5
S11310503700350037003500A4003500A400350002
S1131060370035003700350037003500A40035005F
S1131070A4003500A4003500490A6903B80135000D
S113108037003500A400350037003500A4003500D2
S113109037003500A400350037003500A4003500C2
S11310A0A400350037003500A400350037003500B2
S11310B0A400350037003500A400350037003500A2
S11310C03700350037003500A4003500A400350092
S11310D0A4003500370035003700350037003500EF
S11310E0A4003500A4003500370035003700350072
S11310F037003500A40035000000669C03CB013B9B
S11311000039003B0039003B0039003B00B2003B92
S113111000B2003B00B2003B0039003B0039003B09
S113112000B2003B00B2003B00B2003B0039003B80
S11311300039003B0039003B00B2003B00B2003BE9
S11311400039003B00B2003B0039003B0039003B52
S113115000B2003B0039003B0039003B0039003B42
S113116000B2003B0039003B00B2003B00B2003B40
S11311700039003B00B2003B00B2003B00B2003B30
S113118000A4109C03E7003B0019269C03E7003BE6
S1131190000000761E00D7001E00D8001E00D800F4
S11311A01E005B001E005B001E005B001E00D800DA
S11311B01E005B001E005B001E00D8001E005B00CA
S11311C01E005B001E005B001E005B001E005B0037
S11311D01E005B001E000D0A1E00D8001E00D80071
S11311E01E00D8001E005B001E005B001E005B009A
S11311F01E00D8001E005B001E005B001E00D8000D
S11312001E005B001E005B001E005B001E005B00F6
S11312101E005B001E005B001E0000006A9C03D0E1
S1131220013A0039003A00AD003A0039003A003979
S1131230003A0039003A0039003A00AD003A00396A
S1131240003A00AD003A0039003A00AD003A00AD72
S1131250003A00AD003A00AD003A0039003A00AD62
S1131260003A00AD003A0039003A0039003A00393A
S1131270003A0039003A0039003A0039003A00399E
S1131280003A0039003A00AD003A00AD003A00AD32
S1131290003A00AD003A00AD003A00AD003A00ADAE
S11312A0003A00D60F9E03E6003A0098269E03E615
S11312B0003A0000006A9C03D0013A0039003A0069
S11312C039003A0039003A0039003A0039003A004E
S11312D0AD003A00AD003A0039003A00AD003A00E2
S11312E0AD003A00AD003A00AD003A00AD003A005E
S11312F039003A0039003A00AD003A00AD003A0036
S1131300AD003A0039003A0039003A0039003A0099
S113131039003A0039003A0039003A0039003A00FD
S113132039003A00AD003A00AD003A00AD003A0091
S1131330AD003A00AD003A00AD003A00D60F9E036E
S1131340E6003A0098269E03E6003A0000006A96FA
S113135003CB0138003700380037003800AA0038C2
S113136000AA003800AA00380037003800370038D7
S11313700037003800AA003800370038003700383A
S1131380003700380037003800AA003800AA0038B7
S113139000370038003700380037003800AA00381A
S11313A000AA003800AA00380037003800AA003824
S11313B000AA003800AA003800AA00380037003814
S11313C000AA0038003700380037003800AA003877
S11313D000370038003700380037003800AA0038DA
S11313E00037003800AA003800AA00380037003857
S11313F000AA003800AA003800AA0038003C099866
S113140003CA01380094259803CA01380000006A11
S113141056015701550004015500570055000401B9
S113142055000401550057005500040155005700AC
S1131430550004015500040155005700550057009C
S1131440550057005500570055000401550057003A
S1131450550004015500570055005700550004017C
S1131460550057005500570055000401550004016C
S1131470550004015500260D56015801550004017C
S1131480550057005500040155000401550057004C
S1131490550004015500570055000401550004018E
S11314A05500570055005700550057005500570088
S11314B0550004015500570055000401550057001C
S11314C055005700550004015500570055005700BA
S11314D055000401550004015500040155000000A5
S11314E06A8D03C4013A0037003A0037003A0037E6
S11314F0003A0037003A00AF003A0037003A00AF34
S1131500003A0037003A00AF003A00AF003A00AFAB
S1131510003A00AF003A0037003A00AF003A003713
S1131520003A00AF003A00AF003A00AF003A00AF13
S1131530003A0037003A00AF003A0037003A00376B
S1131540003A0037003A0037003A0037003A0037D3
S1131550003A00AF003A0037003A00AF003A00AF5B
S1131560003A00AF003A0032108E03E5003A007DE5
S1131570258E03E500380000006A6103AD013500E3
S1131580A1003500A10035003700350037003500D3
S11315903700350037003500370035003700350097
S11315A0A1003500A1003500A10035003700350049
S11315B0A10035003700350037003500370035000D
S11315C02B093500A1003500A10035003700350096
S11315D03700350037003500370035003700350057
S11315E037003500A1003500A1003500A100350009
S11315F037003500A10035003700350037003500CD
S1131600370035002B093500A1003500A100350055
S11316103700350037003500370035003700350016
S11316203700350037003500A1003500A100350032
S1131630A100350037003500A10035003700350022
S1131640370035003700350000006A9C03CD0138AF
S113165000AE003800AE003800AE00380038003864
S113166000380038003800380038003800AE003840
S11316700038003800AE0038003800380038003830
S11316800038003800AE0038003800380038003820
S11316900038003800380038003800380038003886
S11316A00038003800AE003800AE003800AE003814
S11316B000AE003800AE003800AE003800AE00388E
S11316C000AE0038003800380038003800380038E0
S11316D000D70F9E03E60038007F269E03E60038FD
S11316E00000006A9C03CE013B00AD003B003B00C0
S11316F03B003B003B003B003B00AD003B00AD002A
S11317003B00AD003B003B003B003B003B00AD0019
S11317103B00AD003B00AD003B003B003B003B0009
S11317203B003B003B00AD003B003B003B00AD00F9
S11317303B003B003B00AD003B003B003B003B005B
S11317403B00AD003B003B003B00AD003B003B00D9
S11317503B00AD003B003B003B00AD003B00AD0057
S11317603B003B003B00AD003B0015109E03CB014A
S11317703B00AD003B003B003B003B003B003B001B
S11317803B00AD003B00AD003B00AD003B003B0027
S11317903B003B003B00AD003B00AD003B00AD0017
S11317A03B003B003B003B003B003B003B00AD00EB
S11317B03B003B003B00AD003B003B003B00AD0069
S11317C03B003B003B003B003B00AD003B003B00CB
S11317D03B00AD003B003B003B00AD003B003B0049
S11317E03B00AD003B00AD003B003B003B00AD00C7
S11317F03B00000068340031003400A30134000AC7
S113180002340031003400A301340031003400A359
S11318100134000A02340031003400A30134000A08
S113182002340031003400A30134000A0234000AF7
S1131830023400310034009130340031003400A30C
S11318400134000A02340031003400A301340031B1
S1131850003400A30134000A02340031003400A330
S11318600134000A02340031003400A30134000AB8
S11318700234000A0234003100340000006ACE0150
S1131880DC013500AF003500AF003500AF00350096
S11318903E0035003E0035003E0035003E00350078
S11318A03E003500AF003500AF003500AF00350015
S11318B03E0035003E0035003E0035003E00350058
S11318C03E0035003E003500AF0035003E003500D7
S11318D03E0035003E0035003E0035003E00350038
S11318E03E003500AF0035003E003500AF00350046
S11318F0AF003500AF003500AF003500AF00350054
S1131900AF0035003512D001DC013500AF003500E1
S1131910AF003500AF0035003E0035003E00350015
S11319203E0035003E0035003E003500AF00350076
S1131930AF003500AF0035003E0035003E003500F5
S11319403E0035003E0035003E0035003E003500C7
S1131950AF0035003E0035003E0035003E00350046
S11319603E0035003E0035003E003500AF00350036
S11319703E003500AF003500AF003500AF00350044
S1131980AF003500AF003500AF0035000000725CD9
S1131990005C00B8005C005C005C005C005C005C07
S11319A0005C005C005C005C005C005C005C005C53
S11319B000B8005C005C00B8005C005C0000245CC3
S11319C0005C00B8005C005C005C005C005C005CD7
S11319D0005C005C005C005C005C005C005C005C23
S11319E000B8005C005C00B8005C005C0000006AA9
S11319F09C03D0013A0039003A0039003A0039001A
S1131A003A0039003A0039003A0039003A00AD0092
S1131A103A0039003A00AD003A00AD003A00AD009A
S1131A203A00AD003A00AD003A00AD003A0039008A
S1131A303A00AD003A0039003A00AD003A003900EE
S1131A403A0039003A00AD003A0039003A00390052
S1131A503A0039003A00AD003A0039003A00AD00CE
S1131A603A00AD003A0039003A00AD003A00AD004A
S1131A703A00AD003A00D60F9E03E6003A009826DD
S1131A809E03E6003A0000006A1C00BD001D0051E0
S1131A90001D0051001D0051001D0051001D00518A
S1131AA0001D00BD001D00BD001D0051001D00BD36
S1131AB0001D0051001D0051001D0051001D00BDFE
S1131AC0001D0051001D003E121D00BD001D0051EF
S1131AD0001D0051001D0051001D0051001D00BDDE
S1131AE0001D0051001D0051001D00BD001D0051CE
S1131AF0001D00BD001D00BD001D00BD001D0051E6
S1131B00001D00BD001D003E121D00BD001D005142
S1131B10001D0051001D0051001D0051001D005109
S1131B20001D00BD001D00BD001D0051001D00BDB5
S1131B30001D0051001D0051001D0051001D00BD7D
S1131B40001D0051001D003E121D00BD001D00516E
S1131B50001D0051001D0051001D0051001D00BD5D
S1131B60001D0051001D0051001D00BD001D00514D
S1131B70001D00BD001D00BD001D00BD001D005165
S1131B80001D00BD001D0000006E6601B3002C00A6
S1131B902D002C0087002C002D002C002D002C0083
S1131BA02D002C002D002C002D002C002D002C00CD
S1131BB02D002C002D002C002D002C002D002C00BD
S1131BC02D002C0087002C002D002C002D002C0053
S1131BD02D002C002D002C002D002C002D002C009D
S1131BE02D002C002D002C002D002C0087002C0033
S1131BF02D002C002D002C002D002C002D002C007D
S1131C002D002C002D002C002D002C002D002C006C
S1131C1087002C002D002C0087002C0087002C004E
S1131C2087002C0087002C002D002C002D002C0098
S1131C3087002C002D002C0087002C0087002C002E
S1131C4087002C0087002C002D002C0087002C001E
S1131C50281E6601B4002C002D002C0087002C00E7
S1131C602D002C002D002C002D002C002D002C000C
S1131C702D002C002D002C002D002C002D002C00FC
S1131C802D002C002D002C002D002C0087002C0092
S1131C902D002C002D002C002D002C002D002C00DC
S1131CA02D002C002D002C002D002C002D002C00CC
S1131CB02D002C0087002C002D002C002D002C0062
S1131CC02D002C002D002C002D002C002D002C00AC
S1131CD02D002C002D002C0087002C002D002C0042
S1131CE087002C0087002C0087002C0087002C0024
S1131CF02D002C002D002C0087002C002D002C0022
S1131D0087002C0087002C0087002C0087002C0003
S1131D102D002C0087002C000000479B019A013401
S1131D2000CD003400CD003400CD003400CD0034AB
S1131D30006600340066003400CD003400660034D0
S1131D4000CD00340066003400CD00340066003459
S1131D500066003400660034006600340066003417
S1131D6000CD003400CD00340066003400CD0034D2
S1131D700066003400CD00340066003400CD003429
S1131D800035039B019A013400CD003400CD0034AA
S1131D9000CD003400CD0034006600340066003409
S1131DA000CD00340066003400CD003400660034F9
S1131DB000CD003400660034006600340066003450
S1131DC0006600340066003400CD003400CD0034D9
S1131DD00066003400CD00340066003400CD0034C9
S1131DE00066003400CD00340000006AF5003C00B9
S1131DF07B003C003D003C007B003C003D003C007F
S1131E007B003C003D003C003D003C007B003C006E
S1131E103D003C003D003C003D003C003D00C70A45
S1131E20F5003C007B003C003D003C007B003C0096
S1131E303D003C007B003C003D003C003D003C007C
S1131E407B003C003D003C003D003C003D003C006C
S1131E503D00000011241FBECFE5D2E0DEBFCDBFA0
S1131E6010E0A0E6B0E0E4ECFFE102C005900D92C2
S1131E70A236B107D9F748D0A3C0C2C09C0110C094
S1131E80000000009F5F01C090E09830C8F300009C
S1131E900000000000000000000000002150310993
S1131EA02115310589F7089588B38B7F88BB88EBAA
S1131EB09BE0E4DF88B3846088BB0895F5DF88E99C
S1131EC09AE3DCDFF1DF88E99AE3D8DFEDDF88E924
S1131ED09AE3D4DFE9DF0895CF93DF93EB0112BED9
S1131EE01FBC18BE22E42ABD21E920BF21E023BF84
S1131EF0C5DF10BE13BE1ABC88B38C7F88BBCE016D
S1131F00BDDFDF91CF910895EF92FF920F931F935E
S1131F10CF93DF9387E087BB84E088BB88B38C7F53
S1131F2088BB00E02DC0C0DFE02FF0E0EE0FFF1F04
S1131F30E25EFF4F85919491EC01FC0184918DBD8B
S1131F4089BD10E0212F30E0220F331F220F331FF1
S1131F50F9013196EC0FFD1F85919491F9013396A7
S1131F60EC0FFD1FE590F490B701B6DF1F5FEF287B
S1131F7049F788B38C7F88BB88EA91E67FDF0F5FDF
S1131F8080916000081708F4CECF8CED9FEF76DFC8
S1131F9095DF10BE13BE88B3846088BB88B38C7F82
S1131FA088BB88EE93E06ADF80E385BF889580E094
S1131FB090E0DF91CF911F910F91FF90EF900895E2
S1071FC0F894FFCFBF
S1051FC42E00E9
S9030000FC
